:020000040000FA
:1000000001280313831671308F00880103178801BC
:1000100083120313003088008030A0000130A1005B
:100020000130A5000330A200200821042504880027
:1000300055205520A00CA10DA20B14281030A000B3
:100040000730A1000130A5000130A20020082104E2
:10005000250488000830A0001030A1000130A50060
:100060000230A200200821042504880055205520D4
:10007000A10DA00CA00C20080838A000A20B32286B
:100080000C30A0004030A1000130A5000230A200D9
:10009000200821042504880055205520A00C2008A4
:1000A0000838A000A10DA20B48280030A3000030A2
:0C00B000A400A40B5928A30B572808003B
:0400BC0000340034D8
:02400E00D420BC
:02401000FF3F70
:00000001FF
